:020000020000FC
:020000003FC0FF
:1000800008E00EBF0FEF0DBF0FEF04B928982998B5
:100090002A983DD14CD1289810E858D1F6E0E0E0FC
:1000A00015911D3019F0289A51D1FACF29D00FEFB0
:1000B00004B900E001B905B90AE70093890000938B
:1000C0008B0001E10093880000938A0000E0009318
:1000D00080000CE00093810000EC00937C0006EAB5
:1000E00000937A0005E000937B0000917A0004FF02
:1000F000FCCF00937A00189A22D016B316BBF5CF26
:1001000007E60093C40002E00093C00006E00093FD
:10011000C20008E10093C10008951F931091C00030
:1001200015FFFCCFB093C6001F9108951F93109147
:10013000C00017FFFCCF0091C6001F9108950091E9
:10014000780010917900B12FE8DFB02FE6DF1F9320
:10015000127009F460C01F91009510951170B1E004
:100160000B0FB0E01B1F25E030E0ABD010EC0DD141
:10017000289A16E5EBD010E2E9D01DE3E7D010E2B3
:10018000E5D01DE2E3D0042F152F20E931E0ABD0FC
:10019000002D10E3010F102F289AD8D00EE2102F57
:1001A000289AD4D0022D132D2AE030E08AD0042FD3
:1001B000152F20E931E097D0002D10E3010F102F0B
:1001C000289AC4D0022D132D2AE030E07AD0042FD3
:1001D000152F20E931E087D0002D10E3010F102FFB
:1001E000289AB4D0022D132D2AE030E06AD0042FD3
:1001F000152F20E931E077D0002D10E3010F102FEB
:10020000289AA4D010E2A2D016E5A0D0BAE085DFEB
:10021000BDE083DF08951F9121E030E052D010EC63
:10022000B4D0289A1DE492D010E290D01DE38ED075
:1002300010E28CD0483C59F411E388D010E386D00A
:100240001EE284D010E382D010E380D031C01BE2E4
:100250007DD0042F152F24E130E045D0002D10E390
:10026000010F102F289A72D00EE2102F289A6ED00C
:10027000022D132D2AE030E024D0042F152F24E185
:1002800030E031D0002D10E3010F102F289A5ED0FE
:10029000022D132D2AE030E014D0042F152F24E175
:1002A00030E021D0002D10E3010F102F289A4ED0FE
:1002B0001BE44CD017E44AD008950AE210E02AE08B
:1002C00030E02224139FB001029FA001129F500D25
:1002D000611D721D309F500D611D721D089504EA4D
:1002E00011E02AE030E0080141E122183324001C2B
:1002F000111C4A9559F0221C331C221A330A20F48F
:10030000220E331E8894F3CF0894F1CF089508ECA1
:1003100033D0289810E32CD00AE22ED0289810E38E
:1003200027D002E029D0289812E310D00895289809
:1003300018E20CD0289811E009D004E11DD02898CB
:100340001CE004D0289816E001D0089505B1017092
:100350000F931F93107F102B0BD001E00DD01F9136
:100360000F911295107F102B03D001E005D0089556
:1003700015B92A9A2A980895F02E08ECE02EEA94EE
:100380000000E9F7FA94D1F7089501E0F5DF289825
:04039000DDDF089510
:0A06000043414E204E414E473A0D93
:00000001FF
